{
    "_format": "hh-sol-artifact-1",
    "contractName": "Transactions",
    "sourceName": "contracts/Transactions.sol",
    "abi": [
        {
            "anonymous": false,
            "inputs": [
                {
                    "indexed": false,
                    "internalType": "address",
                    "name": "from",
                    "type": "address"
                },
                {
                    "indexed": false,
                    "internalType": "address",
                    "name": "receiver",
                    "type": "address"
                },
                {
                    "indexed": false,
                    "internalType": "uint256",
                    "name": "amount",
                    "type": "uint256"
                },
                {
                    "indexed": false,
                    "internalType": "string",
                    "name": "message",
                    "type": "string"
                },
                {
                    "indexed": false,
                    "internalType": "uint256",
                    "name": "timestamp",
                    "type": "uint256"
                },
                {
                    "indexed": false,
                    "internalType": "string",
                    "name": "keyword",
                    "type": "string"
                }
            ],
            "name": "Transfer",
            "type": "event"
        },
        {
            "inputs": [
                {
                    "internalType": "address payable",
                    "name": "receiver",
                    "type": "address"
                },
                {
                    "internalType": "uint256",
                    "name": "amount",
                    "type": "uint256"
                },
                {
                    "internalType": "string",
                    "name": "message",
                    "type": "string"
                },
                {
                    "internalType": "string",
                    "name": "keyword",
                    "type": "string"
                }
            ],
            "name": "addToBlockchain",
            "outputs": [],
            "stateMutability": "nonpayable",
            "type": "function"
        },
        {
            "inputs": [],
            "name": "getAllTransactions",
            "outputs": [
                {
                    "components": [
                        {
                            "internalType": "address",
                            "name": "from",
                            "type": "address"
                        },
                        {
                            "internalType": "address",
                            "name": "receiver",
                            "type": "address"
                        },
                        {
                            "internalType": "uint256",
                            "name": "amount",
                            "type": "uint256"
                        },
                        {
                            "internalType": "string",
                            "name": "message",
                            "type": "string"
                        },
                        {
                            "internalType": "uint256",
                            "name": "timestamp",
                            "type": "uint256"
                        },
                        {
                            "internalType": "string",
                            "name": "keyword",
                            "type": "string"
                        }
                    ],
                    "internalType": "struct Transactions.TransferStruct[]",
                    "name": "",
                    "type": "tuple[]"
                }
            ],
            "stateMutability": "view",
            "type": "function"
        },
        {
            "inputs": [],
            "name": "getTransactionCount",
            "outputs": [
                {
                    "internalType": "uint256",
                    "name": "",
                    "type": "uint256"
                }
            ],
            "stateMutability": "view",
            "type": "function"
        },
        {
            "inputs": [],
            "name": "transactionCounter",
            "outputs": [
                {
                    "internalType": "uint256",
                    "name": "",
                    "type": "uint256"
                }
            ],
            "stateMutability": "view",
            "type": "function"
        },
        {
            "inputs": [
                {
                    "internalType": "uint256",
                    "name": "",
                    "type": "uint256"
                }
            ],
            "name": "transactions",
            "outputs": [
                {
                    "internalType": "address",
                    "name": "from",
                    "type": "address"
                },
                {
                    "internalType": "address",
                    "name": "receiver",
                    "type": "address"
                },
                {
                    "internalType": "uint256",
                    "name": "amount",
                    "type": "uint256"
                },
                {
                    "internalType": "string",
                    "name": "message",
                    "type": "string"
                },
                {
                    "internalType": "uint256",
                    "name": "timestamp",
                    "type": "uint256"
                },
                {
                    "internalType": "string",
                    "name": "keyword",
                    "type": "string"
                }
            ],
            "stateMutability": "view",
            "type": "function"
        }
    ],
    "bytecode": "0x608060405234801561001057600080fd5b50610c89806100206000396000f3fe608060405234801561001057600080fd5b50600436106100575760003560e01c806314e887e81461005c57806327506f531461007a5780632e7700f0146100985780639ace38c2146100b6578063cc2d7ead146100eb575b600080fd5b610064610107565b604051610071919061093e565b60405180910390f35b61008261010d565b60405161008f919061091c565b60405180910390f35b6100a0610112565b6040516100ad919061093e565b60405180910390f35b6100d060048036038101906100cb919061063f565b61011b565b6040516100e2969594939291906108ad565b60405180910390f35b610105600480360381019061010091906105ac565b6102b7565b005b60005481565b606090565b60008054905090565b6001818154811061012b57600080fd5b90600052602060002090600602016000915090508060000160009054906101000a900473ffffffffffffffffffffffffffffffffffffffff16908060010160009054906101000a900473ffffffffffffffffffffffffffffffffffffffff16908060020154908060030180546101a090610adb565b80601f01602080910402602001604051908101604052809291908181526020018280546101cc90610adb565b80156102195780601f106101ee57610100808354040283529160200191610219565b820191906000526020600020905b8154815290600101906020018083116101fc57829003601f168201915b50505050509080600401549080600501805461023490610adb565b80601f016020809104026020016040519081016040528092919081815260200182805461026090610adb565b80156102ad5780601f10610282576101008083540402835291602001916102ad565b820191906000526020600020905b81548152906001019060200180831161029057829003601f168201915b5050505050905086565b6000808154809291906102c990610b3e565b919050555060016040518060c001604052803373ffffffffffffffffffffffffffffffffffffffff1681526020018673ffffffffffffffffffffffffffffffffffffffff16815260200185815260200184815260200142815260200183815250908060018154018082558091505060019003906000526020600020906006020160009091909190915060008201518160000160006101000a81548173ffffffffffffffffffffffffffffffffffffffff021916908373ffffffffffffffffffffffffffffffffffffffff16021790555060208201518160010160006101000a81548173ffffffffffffffffffffffffffffffffffffffff021916908373ffffffffffffffffffffffffffffffffffffffff160217905550604082015181600201556060820151816003019080519060200190610406929190610477565b506080820151816004015560a082015181600501908051906020019061042d929190610477565b5050507f416cfa4330a4565f45c2fd2dd4826a83a37443aba2ce6f79477c7355afac35fa3385858542866040516104699695949392919061083e565b60405180910390a150505050565b82805461048390610adb565b90600052602060002090601f0160209004810192826104a557600085556104ec565b82601f106104be57805160ff19168380011785556104ec565b828001600101855582156104ec579182015b828111156104eb5782518255916020019190600101906104d0565b5b5090506104f991906104fd565b5090565b5b808211156105165760008160009055506001016104fe565b5090565b600061052d6105288461097e565b610959565b90508281526020810184848401111561054557600080fd5b610550848285610a99565b509392505050565b60008135905061056781610c25565b92915050565b600082601f83011261057e57600080fd5b813561058e84826020860161051a565b91505092915050565b6000813590506105a681610c3c565b92915050565b600080600080608085870312156105c257600080fd5b60006105d087828801610558565b94505060206105e187828801610597565b935050604085013567ffffffffffffffff8111156105fe57600080fd5b61060a8782880161056d565b925050606085013567ffffffffffffffff81111561062757600080fd5b6106338782880161056d565b91505092959194509250565b60006020828403121561065157600080fd5b600061065f84828501610597565b91505092915050565b60006106748383610790565b905092915050565b61068581610a63565b82525050565b61069481610a15565b82525050565b6106a381610a15565b82525050565b60006106b4826109bf565b6106be81856109e2565b9350836020820285016106d0856109af565b8060005b8581101561070c57848403895281516106ed8582610668565b94506106f8836109d5565b925060208a019950506001810190506106d4565b50829750879550505050505092915050565b6000610729826109ca565b61073381856109f3565b9350610743818560208601610aa8565b61074c81610c14565b840191505092915050565b6000610762826109ca565b61076c8185610a04565b935061077c818560208601610aa8565b61078581610c14565b840191505092915050565b600060c0830160008301516107a8600086018261068b565b5060208301516107bb602086018261068b565b5060408301516107ce6040860182610820565b50606083015184820360608601526107e6828261071e565b91505060808301516107fb6080860182610820565b5060a083015184820360a0860152610813828261071e565b9150508091505092915050565b61082981610a59565b82525050565b61083881610a59565b82525050565b600060c082019050610853600083018961069a565b610860602083018861067c565b61086d604083018761082f565b818103606083015261087f8186610757565b905061088e608083018561082f565b81810360a08301526108a08184610757565b9050979650505050505050565b600060c0820190506108c2600083018961069a565b6108cf602083018861069a565b6108dc604083018761082f565b81810360608301526108ee8186610757565b90506108fd608083018561082f565b81810360a083015261090f8184610757565b9050979650505050505050565b6000602082019050818103600083015261093681846106a9565b905092915050565b6000602082019050610953600083018461082f565b92915050565b6000610963610974565b905061096f8282610b0d565b919050565b6000604051905090565b600067ffffffffffffffff82111561099957610998610be5565b5b6109a282610c14565b9050602081019050919050565b6000819050602082019050919050565b600081519050919050565b600081519050919050565b6000602082019050919050565b600082825260208201905092915050565b600082825260208201905092915050565b600082825260208201905092915050565b6000610a2082610a39565b9050919050565b6000610a3282610a39565b9050919050565b600073ffffffffffffffffffffffffffffffffffffffff82169050919050565b6000819050919050565b6000610a6e82610a75565b9050919050565b6000610a8082610a87565b9050919050565b6000610a9282610a39565b9050919050565b82818337600083830152505050565b60005b83811015610ac6578082015181840152602081019050610aab565b83811115610ad5576000848401525b50505050565b60006002820490506001821680610af357607f821691505b60208210811415610b0757610b06610bb6565b5b50919050565b610b1682610c14565b810181811067ffffffffffffffff82111715610b3557610b34610be5565b5b80604052505050565b6000610b4982610a59565b91507fffffffffffffffffffffffffffffffffffffffffffffffffffffffffffffffff821415610b7c57610b7b610b87565b5b600182019050919050565b7f4e487b7100000000000000000000000000000000000000000000000000000000600052601160045260246000fd5b7f4e487b7100000000000000000000000000000000000000000000000000000000600052602260045260246000fd5b7f4e487b7100000000000000000000000000000000000000000000000000000000600052604160045260246000fd5b6000601f19601f8301169050919050565b610c2e81610a27565b8114610c3957600080fd5b50565b610c4581610a59565b8114610c5057600080fd5b5056fea26469706673582212200f65d586694af2566b55698c3aa92dd76ecb052d73ea927de0b1b6e1d3b67fcb64736f6c63430008040033",
    "linkReferences": {},
    "deployedLinkReferences": {}
}